:100000000C9434000C9451000C9451000C94510049
:100010000C9451000C9451000C9451000C9451001C
:100020000C9451000C9451000C9451000C9451000C
:100030000C9451000C9451000C9451000C945100FC
:100040000C9451000C9451000C9451000C945100EC
:100050000C9451000C9451000C9451000C945100DC
:100060000C9451000C94510011241FBECFEFD8E026
:10007000DEBFCDBF11E0A0E0B1E0E8E2F7E002C0F2
:1000800005900D92AE31B107D9F721E0AEE1B1E0B4
:1000900001C01D92AC33B207E1F70E9462030C94D9
:1000A00092030C940000CF93DF930F92CDB7DEB78D
:1000B00089838981813019F488E290E00EC08981BA
:1000C0008E3018F48BE290E008C08981843118F4F6
:1000D00085E290E002C088E290E00F90DF91CF913E
:1000E0000895CF93DF930F92CDB7DEB789838981CF
:1000F000813019F487E290E00EC089818E3018F4C7
:100100008AE290E008C08981843118F484E290E0AA
:1001100002C087E290E00F90DF91CF910895CF93D6
:10012000DF930F92CDB7DEB789838981813011F4D7
:1001300080E440C08981873070F48981882F90E005
:100140009C012250310981E090E002C0880F991F84
:100150002A95E2F72FC089818E3070F48981882F2B
:1001600090E09C012650310981E090E002C0880FA8
:10017000991F2A95E2F71EC08981843170F4898124
:10018000882F90E09C012E50310981E090E002C060
:10019000880F991F2A95E2F70DC08981882F90E07A
:1001A0009C012751310981E090E002C0880F991F1E
:1001B0002A95E2F70F90DF91CF910895EF920F9378
:1001C000CF93DF9300D000D000D0CDB7DEB78983C6
:1001D0006A834B832C830D83EE8289810E94710098
:1001E000909337018093360189810E945300909348
:1001F0001F0180931E0189810E948F0080933B0123
:100200008A810E94710090933501809334018A8124
:100210000E94530090933901809338018A810E9493
:100220008F00809320018B810E9471009093330195
:10023000809332018B810E94530090932701809319
:1002400026018B810E948F00809324018C810E9463
:10025000710090933101809330018C810E94530092
:1002600090932F0180932E018C810E948F008093A8
:100270003A018D810E9471009093230180932201A5
:100280008D810E94530090932D0180932C018D81CC
:100290000E948F00809325018E810E9471009093AF
:1002A0002901809328018E810E94530090932B0195
:1002B00080932A018E810E948F008093210180917A
:1002C000360190913701FC01308120913B018091F2
:1002D000360190913701232BFC012083809134015A
:1002E00090913501FC0130812091200180913401F1
:1002F00090913501232BFC01208380913201909154
:100300003301FC01308120912401809132019091D0
:100310003301232BFC012083809130019091310126
:10032000FC01308120913A0180913001909131019E
:10033000232BFC0120838091220190912301FC0159
:100340003081209125018091220190912301232B5E
:10035000FC0120838091280190912901FC013081CA
:10036000209121018091280190912901232BFC01EA
:10037000208380911E0190911F01FC018081982FA4
:1003800080913B018095292F282380911E01909117
:100390001F01FC0120838091380190913901FC01FB
:1003A0008081982F809120018095292F282380918A
:1003B000380190913901FC01208382E390E00E9492
:1003C000840383E00E944A0285E090E00E94840357
:1003D00083E00E944A0281E090E00E94840383E06F
:1003E0000E944A0281E090E00E94840382E00E9421
:1003F0004A0288E20E94FB028CE00E94FB0281E03C
:100400000E94FB0282E090E00E94840386E00E944A
:10041000FB02000026960FB6F894DEBF0FBECDBFDC
:10042000DF91CF910F91EF900895CF93DF93CDB7E8
:10043000DEB781E090E00E947803809138019091CE
:100440003901FC0130812091200180913801909187
:100450003901232BFC01208381E090E00E94780386
:100460008091380190913901FC018081982F809111
:1004700020018095292F28238091380190913901FE
:10048000FC01208384E690E00E9478030000DF9165
:10049000CF910895CF93DF930F92CDB7DEB78983C5
:1004A0008981882F90E081709927892B81F0809134
:1004B000260190912701FC01308120912401809137
:1004C000260190912701232BFC01208312C08091EB
:1004D000260190912701FC018081982F80912401B1
:1004E0008095292F28238091260190912701FC01D6
:1004F00020838981882F90E082709927892B81F051
:1005000080912E0190912F01FC01308120913A01C0
:1005100080912E0190912F01232BFC01208312C08A
:1005200080912E0190912F01FC018081982F809164
:100530003A018095292F282380912E0190912F0137
:10054000FC0120838981882F90E084709927892B72
:1005500081F080912C0190912D01FC01308120913E
:10056000250180912C0190912D01232BFC012083EA
:1005700012C080912C0190912D01FC018081982F57
:10058000809125018095292F282380912C0190911D
:100590002D01FC0120838981882F90E088709927A4
:1005A000892B81F080912A0190912B01FC013081EF
:1005B0002091210180912A0190912B01232BFC0194
:1005C000208312C080912A0190912B01FC0180812F
:1005D000982F809121018095292F282380912A012D
:1005E00090912B01FC0120830E94150200000F90C6
:1005F000DF91CF910895CF93DF930F92CDB7DEB700
:10060000898380911E0190911F01FC018081982FA8
:1006100080913B018095292F282380911E01909184
:100620001F01FC012083898182958F700E944A02FC
:1006300089810E944A0200000F90DF91CF910895B6
:10064000CF93DF930F92CDB7DEB7898380911E01E0
:1006500090911F01FC01308120913B0180911E018E
:1006600090911F01232BFC012083898182958F703B
:100670000E944A0289810E944A0200000F90DF9185
:10068000CF910895CF93DF9300D0CDB7DEB79A8393
:1006900089830BC089819A819C012F5F3F4F3A83E8
:1006A0002983FC0180810E94200389819A81FC01B9
:1006B0008081882379F7000000000F900F90DF9170
:1006C000CF910895EF920F93CF93DF93CDB7DEB71D
:1006D0000F2EF1E1EF2EF02D00E12FE04EE06DE066
:1006E0008CE00E94DE0080E091E00E944203FFCF98
:1006F000000000C006C000C000C000C000C000C0B4
:1007000000C00197C1F70895A82F05C000C000C020
:1007100000C000C000C087EE93E00E9478031197EC
:08072000A9F70895F894FFCF3A
:100728006269672068616972792062616C6C732004
:0E0738006F7220736F6D657468696E670000E4
:00000001FF
