:100000000C9434000C9451000C9451000C94510049
:100010000C9451000C9451000C9451000C9451001C
:100020000C9451000C9451000C9451000C9451000C
:100030000C9451000C9451000C9451000C945100FC
:100040000C9451000C9451000C9451000C945100EC
:100050000C9451000C9451000C9451000C945100DC
:100060000C9451000C94510011241FBECFEFD8E026
:10007000DEBFCDBF11E0A0E0B1E0EAEBF7E002C0E7
:1000800005900D92AE30B107D9F721E0AEE0B1E0B6
:1000900001C01D92AC32B207E1F70E949E030C949E
:1000A000DB030C940000CF93DF930F92CDB7DEB744
:1000B00089838981813019F488E290E00EC08981BA
:1000C0008E3018F48BE290E008C08981843118F4F6
:1000D00085E290E002C088E290E00F90DF91CF913E
:1000E0000895CF93DF930F92CDB7DEB789838981CF
:1000F000813019F487E290E00EC089818E3018F4C7
:100100008AE290E008C08981843118F484E290E0AA
:1001100002C087E290E00F90DF91CF910895CF93D6
:10012000DF930F92CDB7DEB789838981813011F4D7
:1001300080E440C08981873070F48981882F90E005
:100140009C012250310981E090E002C0880F991F84
:100150002A95E2F72FC089818E3070F48981882F2B
:1001600090E09C012650310981E090E002C0880FA8
:10017000991F2A95E2F71EC08981843170F4898124
:10018000882F90E09C012E50310981E090E002C060
:10019000880F991F2A95E2F70DC08981882F90E07A
:1001A0009C012751310981E090E002C0880F991F1E
:1001B0002A95E2F70F90DF91CF910895EF920F9378
:1001C000CF93DF9300D000D000D0CDB7DEB78983C6
:1001D0006A834B832C830D83EE8289810E94710098
:1001E000909327018093260189810E945300909368
:1001F0000F0180930E0189810E948F0080932B0153
:100200008A810E94710090932501809324018A8144
:100210000E94530090932901809328018A810E94B3
:100220008F00809310018B810E94710090932301B5
:10023000809322018B810E94530090931701809339
:1002400016018B810E948F00809314018C810E9483
:10025000710090932101809320018C810E945300B2
:1002600090931F0180931E018C810E948F008093C8
:100270002A018D810E9471009093130180931201D5
:100280008D810E94530090931D0180931C018D81EC
:100290000E948F00809315018E810E9471009093BF
:1002A0001901809318018E810E94530090931B01C5
:1002B00080931A018E810E948F008093110180919A
:1002C000260190912701FC01308120912B01809122
:1002D000260190912701232BFC012083809124018A
:1002E00090912501FC013081209110018091240121
:1002F00090912501232BFC01208380912201909174
:100300002301FC0130812091140180912201909100
:100310002301232BFC012083809120019091210156
:10032000FC01308120912A018091200190912101CE
:10033000232BFC0120838091120190911301FC0179
:100340003081209115018091120190911301232B8E
:10035000FC0120838091180190911901FC013081EA
:10036000209111018091180190911901232BFC011A
:10037000208380910E0190910F01FC018081982FC4
:1003800080912B018095292F282380910E01909137
:100390000F01FC0120838091280190912901FC012B
:1003A0008081982F809110018095292F282380919A
:1003B000280190912901FC01208382E390E00E94B2
:1003C000CD0383E00E944A0285E090E00E94CD03C5
:1003D00083E00E944A0281E090E00E94CD0383E026
:1003E0000E944A0281E090E00E94CD0382E00E94D8
:1003F0004A0288E20E94FB028CE00E94FB0281E03C
:100400000E94FB0282E090E00E94CD0386E00E9401
:10041000FB02000026960FB6F894DEBF0FBECDBFDC
:10042000DF91CF910F91EF900895CF93DF93CDB7E8
:10043000DEB781E090E00E94C10380912801909195
:100440002901FC01308120911001809128019091B7
:100450002901232BFC01208381E090E00E94C1034D
:100460008091280190912901FC018081982F809131
:1004700010018095292F282380912801909129012E
:10048000FC01208384E690E00E94C1030000DF911C
:10049000CF910895CF93DF930F92CDB7DEB78983C5
:1004A0008981882F90E081709927892B81F0809134
:1004B000160190911701FC01308120911401809167
:1004C000160190911701232BFC01208312C080910B
:1004D000160190911701FC018081982F80911401E1
:1004E0008095292F28238091160190911701FC01F6
:1004F00020838981882F90E082709927892B81F051
:1005000080911E0190911F01FC01308120912A01F0
:1005100080911E0190911F01232BFC01208312C0AA
:1005200080911E0190911F01FC018081982F809184
:100530002A018095292F282380911E0190911F0167
:10054000FC0120838981882F90E084709927892B72
:1005500081F080911C0190911D01FC01308120915E
:10056000150180911C0190911D01232BFC0120831A
:1005700012C080911C0190911D01FC018081982F77
:10058000809115018095292F282380911C0190913D
:100590001D01FC0120838981882F90E088709927B4
:1005A000892B81F080911A0190911B01FC0130810F
:1005B0002091110180911A0190911B01232BFC01C4
:1005C000208312C080911A0190911B01FC0180814F
:1005D000982F809111018095292F282380911A014D
:1005E00090911B01FC0120830E94150200000F90D6
:1005F000DF91CF910895CF93DF930F92CDB7DEB700
:10060000898380910E0190910F01FC018081982FC8
:1006100080912B018095292F282380910E019091A4
:100620000F01FC012083898182958F700E944A020C
:1006300089810E944A0200000F90DF91CF910895B6
:10064000CF93DF930F92CDB7DEB7898380910E01F0
:1006500090910F01FC01308120912B0180910E01BE
:1006600090910F01232BFC012083898182958F704B
:100670000E944A0289810E944A0200000F90DF9185
:10068000CF910895CF93DF9300D0CDB7DEB79A8393
:1006900089830BC089819A819C012F5F3F4F3A83E8
:1006A0002983FC0180810E94200389819A81FC01B9
:1006B0008081882379F7000000000F900F90DF9170
:1006C000CF910895CF93DF93CDB7DEB781E00E943D
:1006D000FB0282E090E00E94CD030000DF91CF9109
:1006E0000895CF93DF93CDB7DEB782E00E94FB027F
:1006F00082E090E00E94CD030000DF91CF91089549
:10070000CF93DF93CDB7DEB78FE00E94FB0281E08D
:1007100090E00E94CD030000DF91CF910895CF9328
:10072000DF93CDB7DEB78CE00E94FB0281E090E062
:100730000E94CD030000DF91CF910895EF920F93B7
:10074000CF93DF93CDB7DEB70F2EF1E1EF2EF02D73
:1007500000E12FE04EE06DE08CE00E94DE000E94A0
:10076000800380E091E00E94420380ED97E00E94C8
:10077000CD030E94710387E50E9420030E948F032E
:10078000FFCF000000C006C000C000C000C000C015
:1007900000C000C00197C1F70895DC0105C000C08A
:1007A00000C000C000C000C087EE93E00E94C103FB
:0A07B0001197A9F70895F894FFCF00
:0E07BA00416C6F68612C20576F726C642100D7
:00000001FF
