:100000000C9434000C9451000C9451000C94510049
:100010000C9451000C9451000C9451000C9451001C
:100020000C9451000C9451000C9451000C9451000C
:100030000C9451000C9451000C9451000C945100FC
:100040000C9451000C9451000C9451000C945100EC
:100050000C9451000C9451000C9451000C945100DC
:100060000C9451000C94510011241FBECFEFD8E026
:10007000DEBFCDBF11E0A0E0B1E0E2E7F8E002C0F2
:1000800005900D92AE31B107D9F721E0AEE1B1E0B4
:1000900001C01D92AC33B207E1F70E9453000C94EB
:1000A00037040C940000EF920F93CF93DF93CDB7FA
:1000B000DEB70F2EF1E1EF2EF02D00E12FE04EE044
:1000C0006DE08CE00E945D010E94FF0380E091E002
:1000D0000E94C1030E94F0030E94FF0388E40E9473
:1000E0009F0388EE93E00E94290485E40E949F0309
:1000F00088EE93E00E9429048CE40E949F0388EE1E
:1001000093E00E9429048CE40E949F0388EE93E010
:100110000E9429048FE40E949F0388EE93E00E94CE
:1001200029048CE20E949F0388EE93E00E94290438
:1001300080E20E949F0388EE93E00E94290487E5F5
:100140000E949F0388EE93E00E9429048FE40E949E
:100150009F0388EE93E00E94290482E50E949F039A
:1001600088EE93E00E9429048CE40E949F0388EEAD
:1001700093E00E94290484E40E949F0388EE93E0A8
:100180000E94290481E20E949F0388EE93E00E946E
:1001900029040E94E1030E940E048EE091E00E9477
:1001A000C103FFCFCF93DF930F92CDB7DEB7898323
:1001B0008981813019F488E290E00EC089818E3007
:1001C00018F48BE290E008C08981843118F485E24C
:1001D00090E002C088E290E00F90DF91CF91089507
:1001E000CF93DF930F92CDB7DEB7898389818130BA
:1001F00019F487E290E00EC089818E3018F48AE20B
:1002000090E008C08981843118F484E290E002C053
:1002100087E290E00F90DF91CF910895CF93DF9325
:100220000F92CDB7DEB789838981813011F480E4E4
:1002300040C08981873070F48981882F90E09C01CB
:100240002250310981E090E002C0880F991F2A9561
:10025000E2F72FC089818E3070F48981882F90E079
:100260009C012650310981E090E002C0880F991F5F
:100270002A95E2F71EC08981843170F48981882F24
:1002800090E09C012E50310981E090E002C0880F7F
:10029000991F2A95E2F70DC08981882F90E09C0173
:1002A0002751310981E090E002C0880F991F2A95FB
:1002B000E2F70F90DF91CF910895EF920F93CF93D4
:1002C000DF9300D000D000D0CDB7DEB789836A833A
:1002D0004B832C830D83EE8289810E94F0009093E2
:1002E00037018093360189810E94D20090931F01CB
:1002F00080931E0189810E940E0180933B018A81B7
:100300000E94F00090933501809334018A810E940D
:10031000D20090933901809338018A810E940E01A6
:10032000809320018B810E94F00090933301809391
:1003300032018B810E94D200909327018093260185
:100340008B810E940E01809324018C810E94F00019
:1003500090933101809330018C810E94D200909360
:100360002F0180932E018C810E940E0180933A010F
:100370008D810E94F00090932301809322018D8152
:100380000E94D20090932D0180932C018D810E94B8
:100390000E01809325018E810E94F0009093290127
:1003A000809328018E810E94D20090932B0180932C
:1003B0002A018E810E940E018093210180913601D5
:1003C00090913701FC01308120913B0180913601F1
:1003D00090913701232BFC0120838091340190916F
:1003E0003501FC01308120912001809134019091F0
:1003F0003501232BFC012083809132019091330140
:10040000FC013081209124018091320190913301CF
:10041000232BFC0120838091300190913101FC015C
:10042000308120913A018091300190913101232B4C
:10043000FC0120838091220190912301FC013081F5
:10044000209125018091220190912301232BFC0111
:1004500020838091280190912901FC013081209115
:1004600021018091280190912901232BFC012083F7
:1004700080911E0190911F01FC018081982F809135
:100480003B018095292F282380911E0190911F0107
:10049000FC0120838091380190913901FC01808119
:1004A000982F809120018095292F28238091380151
:1004B00090913901FC01208382E390E00E9429049D
:1004C00083E00E94C90285E090E00E94290483E055
:1004D0000E94C90281E090E00E94290483E00E940A
:1004E000C90281E090E00E94290482E00E94C902D2
:1004F00088E20E947A038CE00E947A0381E00E94E5
:100500007A0382E090E00E94290486E00E947A0348
:10051000000026960FB6F894DEBF0FBECDBFDF9168
:10052000CF910F91EF900895CF93DF93CDB7DEB7C2
:1005300081E090E00E941D04809138019091390182
:10054000FC01308120912001809138019091390186
:10055000232BFC01208381E090E00E941D04809108
:10056000380190913901FC018081982F8091200100
:100570008095292F28238091380190913901FC0121
:10058000208384E690E00E941D040000DF91CF915B
:100590000895CF93DF930F92CDB7DEB7898389811A
:1005A000882F90E081709927892B81F08091260116
:1005B00090912701FC013081209124018091260136
:1005C00090912701232BFC01208312C080912601EA
:1005D00090912701FC018081982F809124018095C2
:1005E000292F28238091260190912701FC01208347
:1005F0008981882F90E082709927892B81F08091E2
:100600002E0190912F01FC01308120913A018091BF
:100610002E0190912F01232BFC01208312C0809189
:100620002E0190912F01FC018081982F80913A0139
:100630008095292F282380912E0190912F01FC0174
:1006400020838981882F90E084709927892B81F0FD
:1006500080912C0190912D01FC0130812091250188
:1006600080912C0190912D01232BFC01208312C03D
:1006700080912C0190912D01FC018081982F809117
:1006800025018095292F282380912C0190912D01FF
:10069000FC0120838981882F90E088709927892B1D
:1006A00081F080912A0190912B01FC0130812091F1
:1006B000210180912A0190912B01232BFC012083A1
:1006C00012C080912A0190912B01FC018081982F0A
:1006D000809121018095292F282380912A019091D2
:1006E0002B01FC0120830E94940200000F90DF91F7
:1006F000CF910895CF93DF930F92CDB7DEB7898363
:1007000080911E0190911F01FC018081982F8091A2
:100710003B018095292F282380911E0190911F0174
:10072000FC012083898182958F700E94C902898192
:100730000E94C90200000F90DF91CF910895CF93DE
:10074000DF930F92CDB7DEB7898380911E01909120
:100750001F01FC01308120913B0180911E0190918D
:100760001F01232BFC012083898182958F700E94B9
:10077000C90289810E94C90200000F90DF91CF91C8
:100780000895CF93DF9300D0CDB7DEB79A838983E6
:100790000BC089819A819C012F5F3F4F3A83298347
:1007A000FC0180810E949F0389819A81FC018081E4
:1007B000882379F7000000000F900F90DF91CF9110
:1007C0000895CF93DF93CDB7DEB781E00E947A031F
:1007D00082E090E00E9429040000DF91CF9108950B
:1007E000CF93DF93CDB7DEB782E00E947A0382E039
:1007F00090E00E9429040000DF91CF910895CF93EB
:10080000DF93CDB7DEB78EE00E947A0381E090E0FF
:100810000E9429040000DF91CF910895CF93DF93C8
:10082000CDB7DEB78CE00E947A0381E090E00E94B1
:1008300029040000DF91CF910895000000C006C098
:1008400000C000C000C000C000C000C00197C1F7D8
:100850000895DC0105C000C000C000C000C000C099
:1008600087EE93E00E941D041197A9F70895F8946C
:02087000FFCFB8
:1008720048656C6C6F2C20776F726C642E00476F2A
:0E0882006F646279652C20776F726C642E00B3
:00000001FF
